{
  "_format": "hh-sol-artifact-1",
  "contractName": "EpicNFT",
  "sourceName": "contracts/EpicNFT.sol",
  "abi": [
    {
      "inputs": [],
      "stateMutability": "nonpayable",
      "type": "constructor"
    },
    {
      "anonymous": false,
      "inputs": [
        {
          "indexed": true,
          "internalType": "address",
          "name": "owner",
          "type": "address"
        },
        {
          "indexed": true,
          "internalType": "address",
          "name": "approved",
          "type": "address"
        },
        {
          "indexed": true,
          "internalType": "uint256",
          "name": "tokenId",
          "type": "uint256"
        }
      ],
      "name": "Approval",
      "type": "event"
    },
    {
      "anonymous": false,
      "inputs": [
        {
          "indexed": true,
          "internalType": "address",
          "name": "owner",
          "type": "address"
        },
        {
          "indexed": true,
          "internalType": "address",
          "name": "operator",
          "type": "address"
        },
        {
          "indexed": false,
          "internalType": "bool",
          "name": "approved",
          "type": "bool"
        }
      ],
      "name": "ApprovalForAll",
      "type": "event"
    },
    {
      "anonymous": false,
      "inputs": [
        {
          "indexed": false,
          "internalType": "address",
          "name": "sender",
          "type": "address"
        },
        {
          "indexed": false,
          "internalType": "uint256",
          "name": "tokenId",
          "type": "uint256"
        }
      ],
      "name": "NewEpicNFTMinted",
      "type": "event"
    },
    {
      "anonymous": false,
      "inputs": [
        {
          "indexed": true,
          "internalType": "address",
          "name": "from",
          "type": "address"
        },
        {
          "indexed": true,
          "internalType": "address",
          "name": "to",
          "type": "address"
        },
        {
          "indexed": true,
          "internalType": "uint256",
          "name": "tokenId",
          "type": "uint256"
        }
      ],
      "name": "Transfer",
      "type": "event"
    },
    {
      "inputs": [
        {
          "internalType": "address",
          "name": "to",
          "type": "address"
        },
        {
          "internalType": "uint256",
          "name": "tokenId",
          "type": "uint256"
        }
      ],
      "name": "approve",
      "outputs": [],
      "stateMutability": "nonpayable",
      "type": "function"
    },
    {
      "inputs": [
        {
          "internalType": "address",
          "name": "owner",
          "type": "address"
        }
      ],
      "name": "balanceOf",
      "outputs": [
        {
          "internalType": "uint256",
          "name": "",
          "type": "uint256"
        }
      ],
      "stateMutability": "view",
      "type": "function"
    },
    {
      "inputs": [
        {
          "internalType": "uint256",
          "name": "tokenId",
          "type": "uint256"
        }
      ],
      "name": "getApproved",
      "outputs": [
        {
          "internalType": "address",
          "name": "",
          "type": "address"
        }
      ],
      "stateMutability": "view",
      "type": "function"
    },
    {
      "inputs": [],
      "name": "getTokensRemaining",
      "outputs": [
        {
          "internalType": "uint256",
          "name": "",
          "type": "uint256"
        },
        {
          "internalType": "uint256",
          "name": "",
          "type": "uint256"
        },
        {
          "internalType": "string",
          "name": "",
          "type": "string"
        }
      ],
      "stateMutability": "view",
      "type": "function"
    },
    {
      "inputs": [
        {
          "internalType": "address",
          "name": "owner",
          "type": "address"
        },
        {
          "internalType": "address",
          "name": "operator",
          "type": "address"
        }
      ],
      "name": "isApprovedForAll",
      "outputs": [
        {
          "internalType": "bool",
          "name": "",
          "type": "bool"
        }
      ],
      "stateMutability": "view",
      "type": "function"
    },
    {
      "inputs": [],
      "name": "maxSupply",
      "outputs": [
        {
          "internalType": "uint256",
          "name": "",
          "type": "uint256"
        }
      ],
      "stateMutability": "view",
      "type": "function"
    },
    {
      "inputs": [],
      "name": "mintEpicNFT",
      "outputs": [],
      "stateMutability": "nonpayable",
      "type": "function"
    },
    {
      "inputs": [],
      "name": "name",
      "outputs": [
        {
          "internalType": "string",
          "name": "",
          "type": "string"
        }
      ],
      "stateMutability": "view",
      "type": "function"
    },
    {
      "inputs": [
        {
          "internalType": "uint256",
          "name": "tokenId",
          "type": "uint256"
        }
      ],
      "name": "ownerOf",
      "outputs": [
        {
          "internalType": "address",
          "name": "",
          "type": "address"
        }
      ],
      "stateMutability": "view",
      "type": "function"
    },
    {
      "inputs": [
        {
          "internalType": "uint256",
          "name": "tokenId",
          "type": "uint256"
        }
      ],
      "name": "pickRandomColor",
      "outputs": [
        {
          "internalType": "string",
          "name": "",
          "type": "string"
        }
      ],
      "stateMutability": "view",
      "type": "function"
    },
    {
      "inputs": [
        {
          "internalType": "uint256",
          "name": "tokenId",
          "type": "uint256"
        }
      ],
      "name": "pickRandomFirstWord",
      "outputs": [
        {
          "internalType": "string",
          "name": "",
          "type": "string"
        }
      ],
      "stateMutability": "view",
      "type": "function"
    },
    {
      "inputs": [
        {
          "internalType": "uint256",
          "name": "tokenId",
          "type": "uint256"
        }
      ],
      "name": "pickRandomSecondWord",
      "outputs": [
        {
          "internalType": "string",
          "name": "",
          "type": "string"
        }
      ],
      "stateMutability": "view",
      "type": "function"
    },
    {
      "inputs": [
        {
          "internalType": "uint256",
          "name": "tokenId",
          "type": "uint256"
        }
      ],
      "name": "pickRandomThirdWord",
      "outputs": [
        {
          "internalType": "string",
          "name": "",
          "type": "string"
        }
      ],
      "stateMutability": "view",
      "type": "function"
    },
    {
      "inputs": [
        {
          "internalType": "address",
          "name": "from",
          "type": "address"
        },
        {
          "internalType": "address",
          "name": "to",
          "type": "address"
        },
        {
          "internalType": "uint256",
          "name": "tokenId",
          "type": "uint256"
        }
      ],
      "name": "safeTransferFrom",
      "outputs": [],
      "stateMutability": "nonpayable",
      "type": "function"
    },
    {
      "inputs": [
        {
          "internalType": "address",
          "name": "from",
          "type": "address"
        },
        {
          "internalType": "address",
          "name": "to",
          "type": "address"
        },
        {
          "internalType": "uint256",
          "name": "tokenId",
          "type": "uint256"
        },
        {
          "internalType": "bytes",
          "name": "_data",
          "type": "bytes"
        }
      ],
      "name": "safeTransferFrom",
      "outputs": [],
      "stateMutability": "nonpayable",
      "type": "function"
    },
    {
      "inputs": [
        {
          "internalType": "address",
          "name": "operator",
          "type": "address"
        },
        {
          "internalType": "bool",
          "name": "approved",
          "type": "bool"
        }
      ],
      "name": "setApprovalForAll",
      "outputs": [],
      "stateMutability": "nonpayable",
      "type": "function"
    },
    {
      "inputs": [
        {
          "internalType": "bytes4",
          "name": "interfaceId",
          "type": "bytes4"
        }
      ],
      "name": "supportsInterface",
      "outputs": [
        {
          "internalType": "bool",
          "name": "",
          "type": "bool"
        }
      ],
      "stateMutability": "view",
      "type": "function"
    },
    {
      "inputs": [],
      "name": "symbol",
      "outputs": [
        {
          "internalType": "string",
          "name": "",
          "type": "string"
        }
      ],
      "stateMutability": "view",
      "type": "function"
    },
    {
      "inputs": [
        {
          "internalType": "uint256",
          "name": "tokenId",
          "type": "uint256"
        }
      ],
      "name": "tokenURI",
      "outputs": [
        {
          "internalType": "string",
          "name": "",
          "type": "string"
        }
      ],
      "stateMutability": "view",
      "type": "function"
    },
    {
      "inputs": [
        {
          "internalType": "address",
          "name": "from",
          "type": "address"
        },
        {
          "internalType": "address",
          "name": "to",
          "type": "address"
        },
        {
          "internalType": "uint256",
          "name": "tokenId",
          "type": "uint256"
        }
      ],
      "name": "transferFrom",
      "outputs": [],
      "stateMutability": "nonpayable",
      "type": "function"
    }
  ],
  "bytecode": "0x608060405260405180610100016040528060d3815260200162004d7260d39139600890805190602001906200003692919062000bfe565b5060405180608001604052806056815260200162004e4560569139600990805190602001906200006892919062000bfe565b506040518061018001604052806040518060400160405280600681526020017f507572706c65000000000000000000000000000000000000000000000000000081525081526020016040518060400160405280600681526020017f59656c6c6f77000000000000000000000000000000000000000000000000000081525081526020016040518060400160405280600481526020017f50696e6b0000000000000000000000000000000000000000000000000000000081525081526020016040518060400160405280600a81526020017f506170617961576869700000000000000000000000000000000000000000000081525081526020016040518060400160405280600881526020017f486f6e657964657700000000000000000000000000000000000000000000000081525081526020016040518060400160405280600981526020017f54757271756f697365000000000000000000000000000000000000000000000081525081526020016040518060400160405280600a81526020017f436861727472657573650000000000000000000000000000000000000000000081525081526020016040518060400160405280600781526020017f5261696e626f770000000000000000000000000000000000000000000000000081525081526020016040518060400160405280600681526020017f56696f6c6574000000000000000000000000000000000000000000000000000081525081526020016040518060400160405280600681526020017f496e6469676f000000000000000000000000000000000000000000000000000081525081526020016040518060400160405280600681526020017f546f6d61746f000000000000000000000000000000000000000000000000000081525081526020016040518060400160405280600381526020017f4173680000000000000000000000000000000000000000000000000000000000815250815250600a90600c6200034992919062000c8f565b506040518061018001604052806040518060400160405280600681526020017f4d6f6e6b6579000000000000000000000000000000000000000000000000000081525081526020016040518060400160405280600881526020017f537461726669736800000000000000000000000000000000000000000000000081525081526020016040518060400160405280600781526020017f4e61727768616c0000000000000000000000000000000000000000000000000081525081526020016040518060400160405280600781526020017f556e69636f726e0000000000000000000000000000000000000000000000000081525081526020016040518060400160405280600581526020017f53746f726b00000000000000000000000000000000000000000000000000000081525081526020016040518060400160405280600a81526020017f526f616472756e6e65720000000000000000000000000000000000000000000081525081526020016040518060400160405280600881526020017f456c657068616e7400000000000000000000000000000000000000000000000081525081526020016040518060400160405280600d81526020017f736e7566666c657570616775730000000000000000000000000000000000000081525081526020016040518060400160405280600881526020017f53656e7469656e7400000000000000000000000000000000000000000000000081525081526020016040518060400160405280600a81526020017f576f6f645065636b65720000000000000000000000000000000000000000000081525081526020016040518060400160405280600981526020017f536561447261676f6e000000000000000000000000000000000000000000000081525081526020016040518060400160405280600681526020017f706f7373756d0000000000000000000000000000000000000000000000000000815250815250600b90600c6200062a92919062000c8f565b506040518061016001604052806040518060400160405280600781526020017f53756e4b6973730000000000000000000000000000000000000000000000000081525081526020016040518060400160405280600781526020017f537461726b696e0000000000000000000000000000000000000000000000000081525081526020016040518060400160405280600881526020017f4d756e63686b696e00000000000000000000000000000000000000000000000081525081526020016040518060400160405280600981526020017f427574744d756e6368000000000000000000000000000000000000000000000081525081526020016040518060400160405280600b81526020017f5477696e6b6c65546f657300000000000000000000000000000000000000000081525081526020016040518060400160405280600c81526020017f42656c6c794c617567686572000000000000000000000000000000000000000081525081526020016040518060400160405280600781526020017f54696e676c65720000000000000000000000000000000000000000000000000081525081526020016040518060400160405280600881526020017f537061726b6c657200000000000000000000000000000000000000000000000081525081526020016040518060400160405280600981526020017f42756d66757a7a6c65000000000000000000000000000000000000000000000081525081526020016040518060400160405280600981526020017f45766572797768656e000000000000000000000000000000000000000000000081525081526020016040518060400160405280600b81526020017f436174747977616d707573000000000000000000000000000000000000000000815250815250600c90600b620008d092919062000cf6565b506040518060c001604052806040518060400160405280600381526020017f726564000000000000000000000000000000000000000000000000000000000081525081526020016040518060400160405280600781526020017f233038433241380000000000000000000000000000000000000000000000000081525081526020016040518060400160405280600581526020017f626c61636b00000000000000000000000000000000000000000000000000000081525081526020016040518060400160405280600681526020017f79656c6c6f77000000000000000000000000000000000000000000000000000081525081526020016040518060400160405280600481526020017f626c75650000000000000000000000000000000000000000000000000000000081525081526020016040518060400160405280600581526020017f677265656e000000000000000000000000000000000000000000000000000000815250815250600d90600662000a4e92919062000d5d565b5034801562000a5c57600080fd5b506040518060400160405280600781526020017f537461724e6674000000000000000000000000000000000000000000000000008152506040518060400160405280600481526020017f5354415200000000000000000000000000000000000000000000000000000000815250816000908051906020019062000ae192919062000bfe565b50806001908051906020019062000afa92919062000bfe565b50505062000b2c60405180606001604052806021815260200162004d516021913962000b3260201b620013731760201c565b62000f7e565b62000bd28160405160240162000b49919062000e92565b6040516020818303038152906040527f41304fac000000000000000000000000000000000000000000000000000000007bffffffffffffffffffffffffffffffffffffffffffffffffffffffff19166020820180517bffffffffffffffffffffffffffffffffffffffffffffffffffffffff838183161783525050505062000bd560201b60201c565b50565b60008151905060006a636f6e736f6c652e6c6f679050602083016000808483855afa5050505050565b82805462000c0c9062000f08565b90600052602060002090601f01602090048101928262000c30576000855562000c7c565b82601f1062000c4b57805160ff191683800117855562000c7c565b8280016001018555821562000c7c579182015b8281111562000c7b57825182559160200191906001019062000c5e565b5b50905062000c8b919062000dc4565b5090565b82805482825590600052602060002090810192821562000ce3579160200282015b8281111562000ce257825182908051906020019062000cd192919062000bfe565b509160200191906001019062000cb0565b5b50905062000cf2919062000de3565b5090565b82805482825590600052602060002090810192821562000d4a579160200282015b8281111562000d4957825182908051906020019062000d3892919062000bfe565b509160200191906001019062000d17565b5b50905062000d59919062000de3565b5090565b82805482825590600052602060002090810192821562000db1579160200282015b8281111562000db057825182908051906020019062000d9f92919062000bfe565b509160200191906001019062000d7e565b5b50905062000dc0919062000de3565b5090565b5b8082111562000ddf57600081600090555060010162000dc5565b5090565b5b8082111562000e07576000818162000dfd919062000e0b565b5060010162000de4565b5090565b50805462000e199062000f08565b6000825580601f1062000e2d575062000e4e565b601f01602090049060005260206000209081019062000e4d919062000dc4565b5b50565b600062000e5e8262000eb6565b62000e6a818562000ec1565b935062000e7c81856020860162000ed2565b62000e878162000f6d565b840191505092915050565b6000602082019050818103600083015262000eae818462000e51565b905092915050565b600081519050919050565b600082825260208201905092915050565b60005b8381101562000ef257808201518184015260208101905062000ed5565b8381111562000f02576000848401525b50505050565b6000600282049050600182168062000f2157607f821691505b6020821081141562000f385762000f3762000f3e565b5b50919050565b7f4e487b7100000000000000000000000000000000000000000000000000000000600052602260045260246000fd5b6000601f19601f8301169050919050565b613dc38062000f8e6000396000f3fe608060405234801561001057600080fd5b506004361061012c5760003560e01c80636352211e116100ad578063b88d4fde11610071578063b88d4fde14610357578063c575757a14610373578063c87b56dd146103a3578063d5abeb01146103d3578063e985e9c5146103f15761012c565b80636352211e1461028d57806370a08231146102bd57806395d89b41146102ed578063a22cb4651461030b578063b187301f146103275761012c565b806323b872dd116100f457806323b872dd146101d55780632de38d68146101f157806342842e0e1461022157806346ad58591461023d578063514dc8c61461025d5761012c565b806301ffc9a71461013157806306fdde0314610161578063081812fc1461017f578063095ea7b3146101af578063207522e0146101cb575b600080fd5b61014b6004803603810190610146919061279f565b610421565b6040516101589190612f2b565b60405180910390f35b610169610503565b6040516101769190612f46565b60405180910390f35b610199600480360381019061019491906127f1565b610595565b6040516101a69190612e9b565b60405180910390f35b6101c960048036038101906101c49190612763565b61061a565b005b6101d3610732565b005b6101ef60048036038101906101ea919061265d565b610985565b005b61020b600480360381019061020691906127f1565b6109e5565b6040516102189190612f46565b60405180910390f35b61023b6004803603810190610236919061265d565b610b03565b005b610245610b23565b604051610254939291906131e1565b60405180910390f35b610277600480360381019061027291906127f1565b610bba565b6040516102849190612f46565b60405180910390f35b6102a760048036038101906102a291906127f1565b610cd8565b6040516102b49190612e9b565b60405180910390f35b6102d760048036038101906102d291906125f8565b610d8a565b6040516102e491906131c6565b60405180910390f35b6102f5610e42565b6040516103029190612f46565b60405180910390f35b61032560048036038101906103209190612727565b610ed4565b005b610341600480360381019061033c91906127f1565b610eea565b60405161034e9190612f46565b60405180910390f35b610371600480360381019061036c91906126ac565b611008565b005b61038d600480360381019061038891906127f1565b61106a565b60405161039a9190612f46565b60405180910390f35b6103bd60048036038101906103b891906127f1565b611188565b6040516103ca9190612f46565b60405180910390f35b6103db6112da565b6040516103e891906131c6565b60405180910390f35b61040b60048036038101906104069190612621565b6112df565b6040516104189190612f2b565b60405180910390f35b60007f80ac58cd000000000000000000000000000000000000000000000000000000007bffffffffffffffffffffffffffffffffffffffffffffffffffffffff1916827bffffffffffffffffffffffffffffffffffffffffffffffffffffffff191614806104ec57507f5b5e139f000000000000000000000000000000000000000000000000000000007bffffffffffffffffffffffffffffffffffffffffffffffffffffffff1916827bffffffffffffffffffffffffffffffffffffffffffffffffffffffff1916145b806104fc57506104fb8261140c565b5b9050919050565b60606000805461051290613498565b80601f016020809104026020016040519081016040528092919081815260200182805461053e90613498565b801561058b5780601f106105605761010080835404028352916020019161058b565b820191906000526020600020905b81548152906001019060200180831161056e57829003601f168201915b5050505050905090565b60006105a082611476565b6105df576040517f08c379a00000000000000000000000000000000000000000000000000000000081526004016105d690613146565b60405180910390fd5b6004600083815260200190815260200160002060009054906101000a900473ffffffffffffffffffffffffffffffffffffffff169050919050565b600061062582610cd8565b90508073ffffffffffffffffffffffffffffffffffffffff168373ffffffffffffffffffffffffffffffffffffffff161415610696576040517f08c379a000000000000000000000000000000000000000000000000000000000815260040161068d90613186565b60405180910390fd5b8073ffffffffffffffffffffffffffffffffffffffff166106b56114e2565b73ffffffffffffffffffffffffffffffffffffffff1614806106e457506106e3816106de6114e2565b6112df565b5b610723576040517f08c379a000000000000000000000000000000000000000000000000000000000815260040161071a90613086565b60405180910390fd5b61072d83836114ea565b505050565b6003600161074060076115a3565b61074a91906132cd565b111561078b576040517f08c379a000000000000000000000000000000000000000000000000000000000815260040161078290613066565b60405180910390fd5b600061079760076115a3565b905060006107a4826109e5565b905060006107b183610eea565b905060006107be8461106a565b905060008383836040516020016107d793929190612d32565b604051602081830303815290604052905060006107f386610bba565b905060006008826009856040516020016108109493929190612d63565b6040516020818303038152906040529050600061085584610830846115b1565b604051602001610841929190612dce565b6040516020818303038152906040526115b1565b905060008160405160200161086a9190612e57565b60405160208183030381529060405290506108b96040518060400160405280601581526020017f0a2d2d2d2d2d2d2d2d2d2d2d2d2d2d2d2d2d2d2d2d0000000000000000000000815250611373565b6108c283611373565b6109006040518060400160405280601581526020017f2d2d2d2d2d2d2d2d2d2d2d2d2d2d2d2d2d2d2d2d0a0000000000000000000000815250611373565b61090a338a61176f565b610914898261178d565b610937604051806060016040528060258152602001613d29602591398a33611801565b61094160076118a0565b7febb98688741ffa4c7589bf325de30cf7becb63de567842e1ccdb6cb949fdc82c338a604051610972929190612f02565b60405180910390a1505050505050505050565b6109966109906114e2565b826118b6565b6109d5576040517f08c379a00000000000000000000000000000000000000000000000000000000081526004016109cc906131a6565b60405180910390fd5b6109e0838383611994565b505050565b60606000610a196109f584611bfb565b604051602001610a059190612e13565b604051602081830303815290604052611da8565b9050600a8054905081610a2c9190613544565b9050600a8181548110610a68577f4e487b7100000000000000000000000000000000000000000000000000000000600052603260045260246000fd5b906000526020600020018054610a7d90613498565b80601f0160208091040260200160405190810160405280929190818152602001828054610aa990613498565b8015610af65780601f10610acb57610100808354040283529160200191610af6565b820191906000526020600020905b815481529060010190602001808311610ad957829003601f168201915b5050505050915050919050565b610b1e83838360405180602001604052806000815250611008565b505050565b600080606060036001610b3660076115a3565b610b4091906132cd565b11610b6c57610b4f60076115a3565b600360405180602001604052806000815250925092509250610bb5565b610b7660076115a3565b60036040518060400160405280600981526020017f536f6c64204f75742100000000000000000000000000000000000000000000008152509250925092505b909192565b60606000610bee610bca84611bfb565b604051602001610bda9190612e79565b604051602081830303815290604052611da8565b9050600d8054905081610c019190613544565b9050600d8181548110610c3d577f4e487b7100000000000000000000000000000000000000000000000000000000600052603260045260246000fd5b906000526020600020018054610c5290613498565b80601f0160208091040260200160405190810160405280929190818152602001828054610c7e90613498565b8015610ccb5780601f10610ca057610100808354040283529160200191610ccb565b820191906000526020600020905b815481529060010190602001808311610cae57829003601f168201915b5050505050915050919050565b6000806002600084815260200190815260200160002060009054906101000a900473ffffffffffffffffffffffffffffffffffffffff169050600073ffffffffffffffffffffffffffffffffffffffff168173ffffffffffffffffffffffffffffffffffffffff161415610d81576040517f08c379a0000000000000000000000000000000000000000000000000000000008152600401610d78906130c6565b60405180910390fd5b80915050919050565b60008073ffffffffffffffffffffffffffffffffffffffff168273ffffffffffffffffffffffffffffffffffffffff161415610dfb576040517f08c379a0000000000000000000000000000000000000000000000000000000008152600401610df2906130a6565b60405180910390fd5b600360008373ffffffffffffffffffffffffffffffffffffffff1673ffffffffffffffffffffffffffffffffffffffff168152602001908152602001600020549050919050565b606060018054610e5190613498565b80601f0160208091040260200160405190810160405280929190818152602001828054610e7d90613498565b8015610eca5780601f10610e9f57610100808354040283529160200191610eca565b820191906000526020600020905b815481529060010190602001808311610ead57829003601f168201915b5050505050905090565b610ee6610edf6114e2565b8383611ddb565b5050565b60606000610f1e610efa84611bfb565b604051602001610f0a9190612e35565b604051602081830303815290604052611da8565b9050600b8054905081610f319190613544565b9050600b8181548110610f6d577f4e487b7100000000000000000000000000000000000000000000000000000000600052603260045260246000fd5b906000526020600020018054610f8290613498565b80601f0160208091040260200160405190810160405280929190818152602001828054610fae90613498565b8015610ffb5780601f10610fd057610100808354040283529160200191610ffb565b820191906000526020600020905b815481529060010190602001808311610fde57829003601f168201915b5050505050915050919050565b6110196110136114e2565b836118b6565b611058576040517f08c379a000000000000000000000000000000000000000000000000000000000815260040161104f906131a6565b60405180910390fd5b61106484848484611f48565b50505050565b6060600061109e61107a84611bfb565b60405160200161108a9190612dac565b604051602081830303815290604052611da8565b9050600c80549050816110b19190613544565b9050600c81815481106110ed577f4e487b7100000000000000000000000000000000000000000000000000000000600052603260045260246000fd5b90600052602060002001805461110290613498565b80601f016020809104026020016040519081016040528092919081815260200182805461112e90613498565b801561117b5780601f106111505761010080835404028352916020019161117b565b820191906000526020600020905b81548152906001019060200180831161115e57829003601f168201915b5050505050915050919050565b606061119382611476565b6111d2576040517f08c379a00000000000000000000000000000000000000000000000000000000081526004016111c990613126565b60405180910390fd5b60006006600084815260200190815260200160002080546111f290613498565b80601f016020809104026020016040519081016040528092919081815260200182805461121e90613498565b801561126b5780601f106112405761010080835404028352916020019161126b565b820191906000526020600020905b81548152906001019060200180831161124e57829003601f168201915b50505050509050600061127c611fa4565b90506000815114156112925781925050506112d5565b6000825111156112c75780826040516020016112af929190612d0e565b604051602081830303815290604052925050506112d5565b6112d084611fbb565b925050505b919050565b600381565b6000600560008473ffffffffffffffffffffffffffffffffffffffff1673ffffffffffffffffffffffffffffffffffffffff16815260200190815260200160002060008373ffffffffffffffffffffffffffffffffffffffff1673ffffffffffffffffffffffffffffffffffffffff16815260200190815260200160002060009054906101000a900460ff16905092915050565b611409816040516024016113879190612f46565b6040516020818303038152906040527f41304fac000000000000000000000000000000000000000000000000000000007bffffffffffffffffffffffffffffffffffffffffffffffffffffffff19166020820180517bffffffffffffffffffffffffffffffffffffffffffffffffffffffff8381831617835250505050612062565b50565b60007f01ffc9a7000000000000000000000000000000000000000000000000000000007bffffffffffffffffffffffffffffffffffffffffffffffffffffffff1916827bffffffffffffffffffffffffffffffffffffffffffffffffffffffff1916149050919050565b60008073ffffffffffffffffffffffffffffffffffffffff166002600084815260200190815260200160002060009054906101000a900473ffffffffffffffffffffffffffffffffffffffff1673ffffffffffffffffffffffffffffffffffffffff1614159050919050565b600033905090565b816004600083815260200190815260200160002060006101000a81548173ffffffffffffffffffffffffffffffffffffffff021916908373ffffffffffffffffffffffffffffffffffffffff160217905550808273ffffffffffffffffffffffffffffffffffffffff1661155d83610cd8565b73ffffffffffffffffffffffffffffffffffffffff167f8c5be1e5ebec7d5bd14f71427d1e84f3dd0314c0f7b2291e5b200ac8c7c3b92560405160405180910390a45050565b600081600001549050919050565b606060008251905060008114156115da576040518060200160405280600081525091505061176a565b600060036002836115eb91906132cd565b6115f59190613323565b60046116019190613354565b9050600060208261161291906132cd565b67ffffffffffffffff811115611651577f4e487b7100000000000000000000000000000000000000000000000000000000600052604160045260246000fd5b6040519080825280601f01601f1916602001820160405280156116835781602001600182028036833780820191505090505b5090506000604051806060016040528060408152602001613d4e604091399050600181016020830160005b868110156117275760038101905062ffffff818a015116603f8160121c168401518060081b905060ff603f83600c1c1686015116810190508060081b905060ff603f8360061c1686015116810190508060081b905060ff603f831686015116810190508060e01b905080845260048401935050506116ae565b50600386066001811461174157600281146117515761175c565b613d3d60f01b600283035261175c565b603d60f81b60018303525b508484525050819450505050505b919050565b61178982826040518060200160405280600081525061208b565b5050565b61179682611476565b6117d5576040517f08c379a00000000000000000000000000000000000000000000000000000000081526004016117cc906130e6565b60405180910390fd5b806006600084815260200190815260200160002090805190602001906117fc929190612484565b505050565b61189b83838360405160240161181993929190612f68565b6040516020818303038152906040527fe3849f79000000000000000000000000000000000000000000000000000000007bffffffffffffffffffffffffffffffffffffffffffffffffffffffff19166020820180517bffffffffffffffffffffffffffffffffffffffffffffffffffffffff8381831617835250505050612062565b505050565b6001816000016000828254019250508190555050565b60006118c182611476565b611900576040517f08c379a00000000000000000000000000000000000000000000000000000000081526004016118f790613046565b60405180910390fd5b600061190b83610cd8565b90508073ffffffffffffffffffffffffffffffffffffffff168473ffffffffffffffffffffffffffffffffffffffff16148061197a57508373ffffffffffffffffffffffffffffffffffffffff1661196284610595565b73ffffffffffffffffffffffffffffffffffffffff16145b8061198b575061198a81856112df565b5b91505092915050565b8273ffffffffffffffffffffffffffffffffffffffff166119b482610cd8565b73ffffffffffffffffffffffffffffffffffffffff1614611a0a576040517f08c379a0000000000000000000000000000000000000000000000000000000008152600401611a0190612fc6565b60405180910390fd5b600073ffffffffffffffffffffffffffffffffffffffff168273ffffffffffffffffffffffffffffffffffffffff161415611a7a576040517f08c379a0000000000000000000000000000000000000000000000000000000008152600401611a7190613006565b60405180910390fd5b611a858383836120e6565b611a906000826114ea565b6001600360008573ffffffffffffffffffffffffffffffffffffffff1673ffffffffffffffffffffffffffffffffffffffff1681526020019081526020016000206000828254611ae091906133ae565b925050819055506001600360008473ffffffffffffffffffffffffffffffffffffffff1673ffffffffffffffffffffffffffffffffffffffff1681526020019081526020016000206000828254611b3791906132cd565b92505081905550816002600083815260200190815260200160002060006101000a81548173ffffffffffffffffffffffffffffffffffffffff021916908373ffffffffffffffffffffffffffffffffffffffff160217905550808273ffffffffffffffffffffffffffffffffffffffff168473ffffffffffffffffffffffffffffffffffffffff167fddf252ad1be2c89b69c2b068fc378daa952ba7f163c4a11628f55a4df523b3ef60405160405180910390a4611bf68383836120eb565b505050565b60606000821415611c43576040518060400160405280600181526020017f30000000000000000000000000000000000000000000000000000000000000008152509050611da3565b600082905060005b60008214611c75578080611c5e906134fb565b915050600a82611c6e9190613323565b9150611c4b565b60008167ffffffffffffffff811115611cb7577f4e487b7100000000000000000000000000000000000000000000000000000000600052604160045260246000fd5b6040519080825280601f01601f191660200182016040528015611ce95781602001600182028036833780820191505090505b5090505b60008514611d9c57600182611d0291906133ae565b9150600a85611d119190613544565b6030611d1d91906132cd565b60f81b818381518110611d59577f4e487b7100000000000000000000000000000000000000000000000000000000600052603260045260246000fd5b60200101907effffffffffffffffffffffffffffffffffffffffffffffffffffffffffffff1916908160001a905350600a85611d959190613323565b9450611ced565b8093505050505b919050565b600081604051602001611dbb9190612cf7565b6040516020818303038152906040528051906020012060001c9050919050565b8173ffffffffffffffffffffffffffffffffffffffff168373ffffffffffffffffffffffffffffffffffffffff161415611e4a576040517f08c379a0000000000000000000000000000000000000000000000000000000008152600401611e4190613026565b60405180910390fd5b80600560008573ffffffffffffffffffffffffffffffffffffffff1673ffffffffffffffffffffffffffffffffffffffff16815260200190815260200160002060008473ffffffffffffffffffffffffffffffffffffffff1673ffffffffffffffffffffffffffffffffffffffff16815260200190815260200160002060006101000a81548160ff0219169083151502179055508173ffffffffffffffffffffffffffffffffffffffff168373ffffffffffffffffffffffffffffffffffffffff167f17307eab39ab6107e8899845ad3d59bd9653f200f220920489ca2b5937696c3183604051611f3b9190612f2b565b60405180910390a3505050565b611f53848484611994565b611f5f848484846120f0565b611f9e576040517f08c379a0000000000000000000000000000000000000000000000000000000008152600401611f9590612fa6565b60405180910390fd5b50505050565b606060405180602001604052806000815250905090565b6060611fc682611476565b612005576040517f08c379a0000000000000000000000000000000000000000000000000000000008152600401611ffc90613166565b60405180910390fd5b600061200f611fa4565b9050600081511161202f576040518060200160405280600081525061205a565b8061203984611bfb565b60405160200161204a929190612d0e565b6040516020818303038152906040525b915050919050565b60008151905060006a636f6e736f6c652e6c6f679050602083016000808483855afa5050505050565b6120958383612287565b6120a260008484846120f0565b6120e1576040517f08c379a00000000000000000000000000000000000000000000000000000000081526004016120d890612fa6565b60405180910390fd5b505050565b505050565b505050565b60006121118473ffffffffffffffffffffffffffffffffffffffff16612461565b1561227a578373ffffffffffffffffffffffffffffffffffffffff1663150b7a0261213a6114e2565b8786866040518563ffffffff1660e01b815260040161215c9493929190612eb6565b602060405180830381600087803b15801561217657600080fd5b505af19250505080156121a757506040513d601f19601f820116820180604052508101906121a491906127c8565b60015b61222a573d80600081146121d7576040519150601f19603f3d011682016040523d82523d6000602084013e6121dc565b606091505b50600081511415612222576040517f08c379a000000000000000000000000000000000000000000000000000000000815260040161221990612fa6565b60405180910390fd5b805181602001fd5b63150b7a0260e01b7bffffffffffffffffffffffffffffffffffffffffffffffffffffffff1916817bffffffffffffffffffffffffffffffffffffffffffffffffffffffff19161491505061227f565b600190505b949350505050565b600073ffffffffffffffffffffffffffffffffffffffff168273ffffffffffffffffffffffffffffffffffffffff1614156122f7576040517f08c379a00000000000000000000000000000000000000000000000000000000081526004016122ee90613106565b60405180910390fd5b61230081611476565b15612340576040517f08c379a000000000000000000000000000000000000000000000000000000000815260040161233790612fe6565b60405180910390fd5b61234c600083836120e6565b6001600360008473ffffffffffffffffffffffffffffffffffffffff1673ffffffffffffffffffffffffffffffffffffffff168152602001908152602001600020600082825461239c91906132cd565b92505081905550816002600083815260200190815260200160002060006101000a81548173ffffffffffffffffffffffffffffffffffffffff021916908373ffffffffffffffffffffffffffffffffffffffff160217905550808273ffffffffffffffffffffffffffffffffffffffff16600073ffffffffffffffffffffffffffffffffffffffff167fddf252ad1be2c89b69c2b068fc378daa952ba7f163c4a11628f55a4df523b3ef60405160405180910390a461245d600083836120eb565b5050565b6000808273ffffffffffffffffffffffffffffffffffffffff163b119050919050565b82805461249090613498565b90600052602060002090601f0160209004810192826124b257600085556124f9565b82601f106124cb57805160ff19168380011785556124f9565b828001600101855582156124f9579182015b828111156124f85782518255916020019190600101906124dd565b5b509050612506919061250a565b5090565b5b8082111561252357600081600090555060010161250b565b5090565b600061253a61253584613244565b61321f565b90508281526020810184848401111561255257600080fd5b61255d848285613456565b509392505050565b60008135905061257481613ccc565b92915050565b60008135905061258981613ce3565b92915050565b60008135905061259e81613cfa565b92915050565b6000815190506125b381613cfa565b92915050565b600082601f8301126125ca57600080fd5b81356125da848260208601612527565b91505092915050565b6000813590506125f281613d11565b92915050565b60006020828403121561260a57600080fd5b600061261884828501612565565b91505092915050565b6000806040838503121561263457600080fd5b600061264285828601612565565b925050602061265385828601612565565b9150509250929050565b60008060006060848603121561267257600080fd5b600061268086828701612565565b935050602061269186828701612565565b92505060406126a2868287016125e3565b9150509250925092565b600080600080608085870312156126c257600080fd5b60006126d087828801612565565b94505060206126e187828801612565565b93505060406126f2878288016125e3565b925050606085013567ffffffffffffffff81111561270f57600080fd5b61271b878288016125b9565b91505092959194509250565b6000806040838503121561273a57600080fd5b600061274885828601612565565b92505060206127598582860161257a565b9150509250929050565b6000806040838503121561277657600080fd5b600061278485828601612565565b9250506020612795858286016125e3565b9150509250929050565b6000602082840312156127b157600080fd5b60006127bf8482850161258f565b91505092915050565b6000602082840312156127da57600080fd5b60006127e8848285016125a4565b91505092915050565b60006020828403121561280357600080fd5b6000612811848285016125e3565b91505092915050565b612823816133e2565b82525050565b612832816133f4565b82525050565b60006128438261328a565b61284d81856132a0565b935061285d818560208601613465565b61286681613631565b840191505092915050565b600061287c82613295565b61288681856132b1565b9350612896818560208601613465565b61289f81613631565b840191505092915050565b60006128b582613295565b6128bf81856132c2565b93506128cf818560208601613465565b80840191505092915050565b600081546128e881613498565b6128f281866132c2565b9450600182166000811461290d576001811461291e57612951565b60ff19831686528186019350612951565b61292785613275565b60005b838110156129495781548189015260018201915060208101905061292a565b838801955050505b50505092915050565b6000612967606d836132c2565b915061297282613642565b606d82019050919050565b600061298a6032836132b1565b9150612995826136dd565b604082019050919050565b60006129ad6025836132b1565b91506129b88261372c565b604082019050919050565b60006129d0601c836132b1565b91506129db8261377b565b602082019050919050565b60006129f36024836132b1565b91506129fe826137a4565b604082019050919050565b6000612a166019836132b1565b9150612a21826137f3565b602082019050919050565b6000612a39602c836132b1565b9150612a448261381c565b604082019050919050565b6000612a5c600d836132c2565b9150612a678261386b565b600d82019050919050565b6000612a7f600a836132b1565b9150612a8a82613894565b602082019050919050565b6000612aa26038836132b1565b9150612aad826138bd565b604082019050919050565b6000612ac5602a836132b1565b9150612ad08261390c565b604082019050919050565b6000612ae86029836132b1565b9150612af38261395b565b604082019050919050565b6000612b0b602e836132b1565b9150612b16826139aa565b604082019050919050565b6000612b2e600d836132c2565b9150612b39826139f9565b600d82019050919050565b6000612b516002836132c2565b9150612b5c82613a22565b600282019050919050565b6000612b746020836132b1565b9150612b7f82613a4b565b602082019050919050565b6000612b976031836132b1565b9150612ba282613a74565b604082019050919050565b6000612bba602c836132b1565b9150612bc582613ac3565b604082019050919050565b6000612bdd602f836132b1565b9150612be882613b12565b604082019050919050565b6000612c00600a836132c2565b9150612c0b82613b61565b600a82019050919050565b6000612c236021836132b1565b9150612c2e82613b8a565b604082019050919050565b6000612c46600a836132c2565b9150612c5182613bd9565b600a82019050919050565b6000612c69600e836132c2565b9150612c7482613c02565b600e82019050919050565b6000612c8c601d836132c2565b9150612c9782613c2b565b601d82019050919050565b6000612caf6031836132b1565b9150612cba82613c54565b604082019050919050565b6000612cd26005836132c2565b9150612cdd82613ca3565b600582019050919050565b612cf18161344c565b82525050565b6000612d0382846128aa565b915081905092915050565b6000612d1a82856128aa565b9150612d2682846128aa565b91508190509392505050565b6000612d3e82866128aa565b9150612d4a82856128aa565b9150612d5682846128aa565b9150819050949350505050565b6000612d6f82876128db565b9150612d7b82866128aa565b9150612d8782856128db565b9150612d9382846128aa565b9150612d9e82612a4f565b915081905095945050505050565b6000612db782612b21565b9150612dc382846128aa565b915081905092915050565b6000612dd982612bf3565b9150612de582856128aa565b9150612df08261295a565b9150612dfc82846128aa565b9150612e0782612b44565b91508190509392505050565b6000612e1e82612c39565b9150612e2a82846128aa565b915081905092915050565b6000612e4082612c5c565b9150612e4c82846128aa565b915081905092915050565b6000612e6282612c7f565b9150612e6e82846128aa565b915081905092915050565b6000612e8482612cc5565b9150612e9082846128aa565b915081905092915050565b6000602082019050612eb0600083018461281a565b92915050565b6000608082019050612ecb600083018761281a565b612ed8602083018661281a565b612ee56040830185612ce8565b8181036060830152612ef78184612838565b905095945050505050565b6000604082019050612f17600083018561281a565b612f246020830184612ce8565b9392505050565b6000602082019050612f406000830184612829565b92915050565b60006020820190508181036000830152612f608184612871565b905092915050565b60006060820190508181036000830152612f828186612871565b9050612f916020830185612ce8565b612f9e604083018461281a565b949350505050565b60006020820190508181036000830152612fbf8161297d565b9050919050565b60006020820190508181036000830152612fdf816129a0565b9050919050565b60006020820190508181036000830152612fff816129c3565b9050919050565b6000602082019050818103600083015261301f816129e6565b9050919050565b6000602082019050818103600083015261303f81612a09565b9050919050565b6000602082019050818103600083015261305f81612a2c565b9050919050565b6000602082019050818103600083015261307f81612a72565b9050919050565b6000602082019050818103600083015261309f81612a95565b9050919050565b600060208201905081810360008301526130bf81612ab8565b9050919050565b600060208201905081810360008301526130df81612adb565b9050919050565b600060208201905081810360008301526130ff81612afe565b9050919050565b6000602082019050818103600083015261311f81612b67565b9050919050565b6000602082019050818103600083015261313f81612b8a565b9050919050565b6000602082019050818103600083015261315f81612bad565b9050919050565b6000602082019050818103600083015261317f81612bd0565b9050919050565b6000602082019050818103600083015261319f81612c16565b9050919050565b600060208201905081810360008301526131bf81612ca2565b9050919050565b60006020820190506131db6000830184612ce8565b92915050565b60006060820190506131f66000830186612ce8565b6132036020830185612ce8565b81810360408301526132158184612871565b9050949350505050565b600061322961323a565b905061323582826134ca565b919050565b6000604051905090565b600067ffffffffffffffff82111561325f5761325e613602565b5b61326882613631565b9050602081019050919050565b60008190508160005260206000209050919050565b600081519050919050565b600081519050919050565b600082825260208201905092915050565b600082825260208201905092915050565b600081905092915050565b60006132d88261344c565b91506132e38361344c565b9250827fffffffffffffffffffffffffffffffffffffffffffffffffffffffffffffffff0382111561331857613317613575565b5b828201905092915050565b600061332e8261344c565b91506133398361344c565b925082613349576133486135a4565b5b828204905092915050565b600061335f8261344c565b915061336a8361344c565b9250817fffffffffffffffffffffffffffffffffffffffffffffffffffffffffffffffff04831182151516156133a3576133a2613575565b5b828202905092915050565b60006133b98261344c565b91506133c48361344c565b9250828210156133d7576133d6613575565b5b828203905092915050565b60006133ed8261342c565b9050919050565b60008115159050919050565b60007fffffffff0000000000000000000000000000000000000000000000000000000082169050919050565b600073ffffffffffffffffffffffffffffffffffffffff82169050919050565b6000819050919050565b82818337600083830152505050565b60005b83811015613483578082015181840152602081019050613468565b83811115613492576000848401525b50505050565b600060028204905060018216806134b057607f821691505b602082108114156134c4576134c36135d3565b5b50919050565b6134d382613631565b810181811067ffffffffffffffff821117156134f2576134f1613602565b5b80604052505050565b60006135068261344c565b91507fffffffffffffffffffffffffffffffffffffffffffffffffffffffffffffffff82141561353957613538613575565b5b600182019050919050565b600061354f8261344c565b915061355a8361344c565b92508261356a576135696135a4565b5b828206905092915050565b7f4e487b7100000000000000000000000000000000000000000000000000000000600052601160045260246000fd5b7f4e487b7100000000000000000000000000000000000000000000000000000000600052601260045260246000fd5b7f4e487b7100000000000000000000000000000000000000000000000000000000600052602260045260246000fd5b7f4e487b7100000000000000000000000000000000000000000000000000000000600052604160045260246000fd5b6000601f19601f8301169050919050565b7f222c20226465736372697074696f6e223a2022576973646f6d206f662061204460008201527f7261676f6e20746f2066696c6c20796f7572204a6f75726e657920776974682060208201527f6c696768742e222c2022696d616765223a2022646174613a696d6167652f737660408201527f672b786d6c3b6261736536342c00000000000000000000000000000000000000606082015250565b7f4552433732313a207472616e7366657220746f206e6f6e20455243373231526560008201527f63656976657220696d706c656d656e7465720000000000000000000000000000602082015250565b7f4552433732313a207472616e736665722066726f6d20696e636f72726563742060008201527f6f776e6572000000000000000000000000000000000000000000000000000000602082015250565b7f4552433732313a20746f6b656e20616c7265616479206d696e74656400000000600082015250565b7f4552433732313a207472616e7366657220746f20746865207a65726f2061646460008201527f7265737300000000000000000000000000000000000000000000000000000000602082015250565b7f4552433732313a20617070726f766520746f2063616c6c657200000000000000600082015250565b7f4552433732313a206f70657261746f7220717565727920666f72206e6f6e657860008201527f697374656e7420746f6b656e0000000000000000000000000000000000000000602082015250565b7f3c2f746578743e3c2f7376673e00000000000000000000000000000000000000600082015250565b7f536f6c64204f7574212100000000000000000000000000000000000000000000600082015250565b7f4552433732313a20617070726f76652063616c6c6572206973206e6f74206f7760008201527f6e6572206e6f7220617070726f76656420666f7220616c6c0000000000000000602082015250565b7f4552433732313a2062616c616e636520717565727920666f7220746865207a6560008201527f726f206164647265737300000000000000000000000000000000000000000000602082015250565b7f4552433732313a206f776e657220717565727920666f72206e6f6e657869737460008201527f656e7420746f6b656e0000000000000000000000000000000000000000000000602082015250565b7f45524337323155524953746f726167653a2055524920736574206f66206e6f6e60008201527f6578697374656e7420746f6b656e000000000000000000000000000000000000602082015250565b7f20202054484952445f574f524400000000000000000000000000000000000000600082015250565b7f227d000000000000000000000000000000000000000000000000000000000000600082015250565b7f4552433732313a206d696e7420746f20746865207a65726f2061646472657373600082015250565b7f45524337323155524953746f726167653a2055524920717565727920666f722060008201527f6e6f6e6578697374656e7420746f6b656e000000000000000000000000000000602082015250565b7f4552433732313a20617070726f76656420717565727920666f72206e6f6e657860008201527f697374656e7420746f6b656e0000000000000000000000000000000000000000602082015250565b7f4552433732314d657461646174613a2055524920717565727920666f72206e6f60008201527f6e6578697374656e7420746f6b656e0000000000000000000000000000000000602082015250565b7f7b226e616d65223a202200000000000000000000000000000000000000000000600082015250565b7f4552433732313a20617070726f76616c20746f2063757272656e74206f776e6560008201527f7200000000000000000000000000000000000000000000000000000000000000602082015250565b7f46495253545f574f524400000000000000000000000000000000000000000000600082015250565b7f2020205345434f4e445f574f5244000000000000000000000000000000000000600082015250565b7f646174613a6170706c69636174696f6e2f6a736f6e3b6261736536342c000000600082015250565b7f4552433732313a207472616e736665722063616c6c6572206973206e6f74206f60008201527f776e6572206e6f7220617070726f766564000000000000000000000000000000602082015250565b7f434f4c4f52000000000000000000000000000000000000000000000000000000600082015250565b613cd5816133e2565b8114613ce057600080fd5b50565b613cec816133f4565b8114613cf757600080fd5b50565b613d0381613400565b8114613d0e57600080fd5b50565b613d1a8161344c565b8114613d2557600080fd5b5056fe416e204e465420772f20494420257320686173206265656e206d696e74656420746f2025734142434445464748494a4b4c4d4e4f505152535455565758595a6162636465666768696a6b6c6d6e6f707172737475767778797a303132333435363738392b2fa26469706673582212201699f79eebdc4d45fd9cf21abc5807fb91c3c4b2a6e3aa82bce4771abaee6d2a64736f6c6343000801003354686973206973206d79204e465420636f6e74726163742e20574f4f4f542121213c73766720786d6c6e733d27687474703a2f2f7777772e77332e6f72672f323030302f73766727207072657365727665417370656374526174696f3d27784d696e594d696e206d656574272076696577426f783d273020302033353020333530273e3c7374796c653e2e62617365207b2066696c6c3a2077686974653b20666f6e742d66616d696c793a2073657269663b20666f6e742d73697a653a20323470783b207d3c2f7374796c653e3c726563742077696474683d273130302527206865696768743d2731303025272066696c6c3d27272f3e3c7465787420783d273530252720793d273530252720636c6173733d27626173652720646f6d696e616e742d626173656c696e653d276d6964646c652720746578742d616e63686f723d276d6964646c65273e",
  "linkReferences": {},
  "deployedLinkReferences": {}
}