{
  "_format": "hh-sol-artifact-1",
  "contractName": "EpicNFT",
  "sourceName": "contracts/EpicNFT.sol",
  "abi": [
    {
      "inputs": [],
      "stateMutability": "nonpayable",
      "type": "constructor"
    },
    {
      "anonymous": false,
      "inputs": [
        {
          "indexed": true,
          "internalType": "address",
          "name": "owner",
          "type": "address"
        },
        {
          "indexed": true,
          "internalType": "address",
          "name": "approved",
          "type": "address"
        },
        {
          "indexed": true,
          "internalType": "uint256",
          "name": "tokenId",
          "type": "uint256"
        }
      ],
      "name": "Approval",
      "type": "event"
    },
    {
      "anonymous": false,
      "inputs": [
        {
          "indexed": true,
          "internalType": "address",
          "name": "owner",
          "type": "address"
        },
        {
          "indexed": true,
          "internalType": "address",
          "name": "operator",
          "type": "address"
        },
        {
          "indexed": false,
          "internalType": "bool",
          "name": "approved",
          "type": "bool"
        }
      ],
      "name": "ApprovalForAll",
      "type": "event"
    },
    {
      "anonymous": false,
      "inputs": [
        {
          "indexed": false,
          "internalType": "address",
          "name": "sender",
          "type": "address"
        },
        {
          "indexed": false,
          "internalType": "uint256",
          "name": "tokenId",
          "type": "uint256"
        }
      ],
      "name": "NewEpicNFTMinted",
      "type": "event"
    },
    {
      "anonymous": false,
      "inputs": [
        {
          "indexed": true,
          "internalType": "address",
          "name": "from",
          "type": "address"
        },
        {
          "indexed": true,
          "internalType": "address",
          "name": "to",
          "type": "address"
        },
        {
          "indexed": true,
          "internalType": "uint256",
          "name": "tokenId",
          "type": "uint256"
        }
      ],
      "name": "Transfer",
      "type": "event"
    },
    {
      "inputs": [
        {
          "internalType": "address",
          "name": "to",
          "type": "address"
        },
        {
          "internalType": "uint256",
          "name": "tokenId",
          "type": "uint256"
        }
      ],
      "name": "approve",
      "outputs": [],
      "stateMutability": "nonpayable",
      "type": "function"
    },
    {
      "inputs": [
        {
          "internalType": "address",
          "name": "owner",
          "type": "address"
        }
      ],
      "name": "balanceOf",
      "outputs": [
        {
          "internalType": "uint256",
          "name": "",
          "type": "uint256"
        }
      ],
      "stateMutability": "view",
      "type": "function"
    },
    {
      "inputs": [
        {
          "internalType": "uint256",
          "name": "tokenId",
          "type": "uint256"
        }
      ],
      "name": "getApproved",
      "outputs": [
        {
          "internalType": "address",
          "name": "",
          "type": "address"
        }
      ],
      "stateMutability": "view",
      "type": "function"
    },
    {
      "inputs": [],
      "name": "getTokensRemaining",
      "outputs": [
        {
          "internalType": "uint256",
          "name": "",
          "type": "uint256"
        },
        {
          "internalType": "uint256",
          "name": "",
          "type": "uint256"
        }
      ],
      "stateMutability": "view",
      "type": "function"
    },
    {
      "inputs": [
        {
          "internalType": "address",
          "name": "owner",
          "type": "address"
        },
        {
          "internalType": "address",
          "name": "operator",
          "type": "address"
        }
      ],
      "name": "isApprovedForAll",
      "outputs": [
        {
          "internalType": "bool",
          "name": "",
          "type": "bool"
        }
      ],
      "stateMutability": "view",
      "type": "function"
    },
    {
      "inputs": [],
      "name": "maxSupply",
      "outputs": [
        {
          "internalType": "uint256",
          "name": "",
          "type": "uint256"
        }
      ],
      "stateMutability": "view",
      "type": "function"
    },
    {
      "inputs": [],
      "name": "mintEpicNFT",
      "outputs": [],
      "stateMutability": "nonpayable",
      "type": "function"
    },
    {
      "inputs": [],
      "name": "name",
      "outputs": [
        {
          "internalType": "string",
          "name": "",
          "type": "string"
        }
      ],
      "stateMutability": "view",
      "type": "function"
    },
    {
      "inputs": [
        {
          "internalType": "uint256",
          "name": "tokenId",
          "type": "uint256"
        }
      ],
      "name": "ownerOf",
      "outputs": [
        {
          "internalType": "address",
          "name": "",
          "type": "address"
        }
      ],
      "stateMutability": "view",
      "type": "function"
    },
    {
      "inputs": [
        {
          "internalType": "uint256",
          "name": "tokenId",
          "type": "uint256"
        }
      ],
      "name": "pickRandomColor",
      "outputs": [
        {
          "internalType": "string",
          "name": "",
          "type": "string"
        }
      ],
      "stateMutability": "view",
      "type": "function"
    },
    {
      "inputs": [
        {
          "internalType": "uint256",
          "name": "tokenId",
          "type": "uint256"
        }
      ],
      "name": "pickRandomFirstWord",
      "outputs": [
        {
          "internalType": "string",
          "name": "",
          "type": "string"
        }
      ],
      "stateMutability": "view",
      "type": "function"
    },
    {
      "inputs": [
        {
          "internalType": "uint256",
          "name": "tokenId",
          "type": "uint256"
        }
      ],
      "name": "pickRandomSecondWord",
      "outputs": [
        {
          "internalType": "string",
          "name": "",
          "type": "string"
        }
      ],
      "stateMutability": "view",
      "type": "function"
    },
    {
      "inputs": [
        {
          "internalType": "uint256",
          "name": "tokenId",
          "type": "uint256"
        }
      ],
      "name": "pickRandomThirdWord",
      "outputs": [
        {
          "internalType": "string",
          "name": "",
          "type": "string"
        }
      ],
      "stateMutability": "view",
      "type": "function"
    },
    {
      "inputs": [
        {
          "internalType": "address",
          "name": "from",
          "type": "address"
        },
        {
          "internalType": "address",
          "name": "to",
          "type": "address"
        },
        {
          "internalType": "uint256",
          "name": "tokenId",
          "type": "uint256"
        }
      ],
      "name": "safeTransferFrom",
      "outputs": [],
      "stateMutability": "nonpayable",
      "type": "function"
    },
    {
      "inputs": [
        {
          "internalType": "address",
          "name": "from",
          "type": "address"
        },
        {
          "internalType": "address",
          "name": "to",
          "type": "address"
        },
        {
          "internalType": "uint256",
          "name": "tokenId",
          "type": "uint256"
        },
        {
          "internalType": "bytes",
          "name": "_data",
          "type": "bytes"
        }
      ],
      "name": "safeTransferFrom",
      "outputs": [],
      "stateMutability": "nonpayable",
      "type": "function"
    },
    {
      "inputs": [
        {
          "internalType": "address",
          "name": "operator",
          "type": "address"
        },
        {
          "internalType": "bool",
          "name": "approved",
          "type": "bool"
        }
      ],
      "name": "setApprovalForAll",
      "outputs": [],
      "stateMutability": "nonpayable",
      "type": "function"
    },
    {
      "inputs": [
        {
          "internalType": "bytes4",
          "name": "interfaceId",
          "type": "bytes4"
        }
      ],
      "name": "supportsInterface",
      "outputs": [
        {
          "internalType": "bool",
          "name": "",
          "type": "bool"
        }
      ],
      "stateMutability": "view",
      "type": "function"
    },
    {
      "inputs": [],
      "name": "symbol",
      "outputs": [
        {
          "internalType": "string",
          "name": "",
          "type": "string"
        }
      ],
      "stateMutability": "view",
      "type": "function"
    },
    {
      "inputs": [
        {
          "internalType": "uint256",
          "name": "tokenId",
          "type": "uint256"
        }
      ],
      "name": "tokenURI",
      "outputs": [
        {
          "internalType": "string",
          "name": "",
          "type": "string"
        }
      ],
      "stateMutability": "view",
      "type": "function"
    },
    {
      "inputs": [
        {
          "internalType": "address",
          "name": "from",
          "type": "address"
        },
        {
          "internalType": "address",
          "name": "to",
          "type": "address"
        },
        {
          "internalType": "uint256",
          "name": "tokenId",
          "type": "uint256"
        }
      ],
      "name": "transferFrom",
      "outputs": [],
      "stateMutability": "nonpayable",
      "type": "function"
    }
  ],
  "bytecode": "0x608060405260405180610100016040528060d3815260200162004cdb60d39139600890805190602001906200003692919062000bfe565b5060405180608001604052806056815260200162004dae60569139600990805190602001906200006892919062000bfe565b506040518061018001604052806040518060400160405280600681526020017f507572706c65000000000000000000000000000000000000000000000000000081525081526020016040518060400160405280600681526020017f59656c6c6f77000000000000000000000000000000000000000000000000000081525081526020016040518060400160405280600481526020017f50696e6b0000000000000000000000000000000000000000000000000000000081525081526020016040518060400160405280600a81526020017f506170617961576869700000000000000000000000000000000000000000000081525081526020016040518060400160405280600881526020017f486f6e657964657700000000000000000000000000000000000000000000000081525081526020016040518060400160405280600981526020017f54757271756f697365000000000000000000000000000000000000000000000081525081526020016040518060400160405280600a81526020017f436861727472657573650000000000000000000000000000000000000000000081525081526020016040518060400160405280600781526020017f5261696e626f770000000000000000000000000000000000000000000000000081525081526020016040518060400160405280600681526020017f56696f6c6574000000000000000000000000000000000000000000000000000081525081526020016040518060400160405280600681526020017f496e6469676f000000000000000000000000000000000000000000000000000081525081526020016040518060400160405280600681526020017f546f6d61746f000000000000000000000000000000000000000000000000000081525081526020016040518060400160405280600381526020017f4173680000000000000000000000000000000000000000000000000000000000815250815250600a90600c6200034992919062000c8f565b506040518061018001604052806040518060400160405280600681526020017f4d6f6e6b6579000000000000000000000000000000000000000000000000000081525081526020016040518060400160405280600881526020017f537461726669736800000000000000000000000000000000000000000000000081525081526020016040518060400160405280600781526020017f4e61727768616c0000000000000000000000000000000000000000000000000081525081526020016040518060400160405280600781526020017f556e69636f726e0000000000000000000000000000000000000000000000000081525081526020016040518060400160405280600581526020017f53746f726b00000000000000000000000000000000000000000000000000000081525081526020016040518060400160405280600a81526020017f526f616472756e6e65720000000000000000000000000000000000000000000081525081526020016040518060400160405280600881526020017f456c657068616e7400000000000000000000000000000000000000000000000081525081526020016040518060400160405280600d81526020017f736e7566666c657570616775730000000000000000000000000000000000000081525081526020016040518060400160405280600881526020017f53656e7469656e7400000000000000000000000000000000000000000000000081525081526020016040518060400160405280600a81526020017f576f6f645065636b65720000000000000000000000000000000000000000000081525081526020016040518060400160405280600981526020017f536561447261676f6e000000000000000000000000000000000000000000000081525081526020016040518060400160405280600681526020017f706f7373756d0000000000000000000000000000000000000000000000000000815250815250600b90600c6200062a92919062000c8f565b506040518061016001604052806040518060400160405280600781526020017f53756e4b6973730000000000000000000000000000000000000000000000000081525081526020016040518060400160405280600781526020017f537461726b696e0000000000000000000000000000000000000000000000000081525081526020016040518060400160405280600881526020017f4d756e63686b696e00000000000000000000000000000000000000000000000081525081526020016040518060400160405280600981526020017f427574744d756e6368000000000000000000000000000000000000000000000081525081526020016040518060400160405280600b81526020017f5477696e6b6c65546f657300000000000000000000000000000000000000000081525081526020016040518060400160405280600c81526020017f42656c6c794c617567686572000000000000000000000000000000000000000081525081526020016040518060400160405280600781526020017f54696e676c65720000000000000000000000000000000000000000000000000081525081526020016040518060400160405280600881526020017f537061726b6c657200000000000000000000000000000000000000000000000081525081526020016040518060400160405280600981526020017f42756d66757a7a6c65000000000000000000000000000000000000000000000081525081526020016040518060400160405280600981526020017f45766572797768656e000000000000000000000000000000000000000000000081525081526020016040518060400160405280600b81526020017f436174747977616d707573000000000000000000000000000000000000000000815250815250600c90600b620008d092919062000cf6565b506040518060c001604052806040518060400160405280600381526020017f726564000000000000000000000000000000000000000000000000000000000081525081526020016040518060400160405280600781526020017f233038433241380000000000000000000000000000000000000000000000000081525081526020016040518060400160405280600581526020017f626c61636b00000000000000000000000000000000000000000000000000000081525081526020016040518060400160405280600681526020017f79656c6c6f77000000000000000000000000000000000000000000000000000081525081526020016040518060400160405280600481526020017f626c75650000000000000000000000000000000000000000000000000000000081525081526020016040518060400160405280600581526020017f677265656e000000000000000000000000000000000000000000000000000000815250815250600d90600662000a4e92919062000d5d565b5034801562000a5c57600080fd5b506040518060400160405280600781526020017f537461724e6674000000000000000000000000000000000000000000000000008152506040518060400160405280600481526020017f5354415200000000000000000000000000000000000000000000000000000000815250816000908051906020019062000ae192919062000bfe565b50806001908051906020019062000afa92919062000bfe565b50505062000b2c60405180606001604052806021815260200162004cba6021913962000b3260201b620012f11760201c565b62000f7e565b62000bd28160405160240162000b49919062000e92565b6040516020818303038152906040527f41304fac000000000000000000000000000000000000000000000000000000007bffffffffffffffffffffffffffffffffffffffffffffffffffffffff19166020820180517bffffffffffffffffffffffffffffffffffffffffffffffffffffffff838183161783525050505062000bd560201b60201c565b50565b60008151905060006a636f6e736f6c652e6c6f679050602083016000808483855afa5050505050565b82805462000c0c9062000f08565b90600052602060002090601f01602090048101928262000c30576000855562000c7c565b82601f1062000c4b57805160ff191683800117855562000c7c565b8280016001018555821562000c7c579182015b8281111562000c7b57825182559160200191906001019062000c5e565b5b50905062000c8b919062000dc4565b5090565b82805482825590600052602060002090810192821562000ce3579160200282015b8281111562000ce257825182908051906020019062000cd192919062000bfe565b509160200191906001019062000cb0565b5b50905062000cf2919062000de3565b5090565b82805482825590600052602060002090810192821562000d4a579160200282015b8281111562000d4957825182908051906020019062000d3892919062000bfe565b509160200191906001019062000d17565b5b50905062000d59919062000de3565b5090565b82805482825590600052602060002090810192821562000db1579160200282015b8281111562000db057825182908051906020019062000d9f92919062000bfe565b509160200191906001019062000d7e565b5b50905062000dc0919062000de3565b5090565b5b8082111562000ddf57600081600090555060010162000dc5565b5090565b5b8082111562000e07576000818162000dfd919062000e0b565b5060010162000de4565b5090565b50805462000e199062000f08565b6000825580601f1062000e2d575062000e4e565b601f01602090049060005260206000209081019062000e4d919062000dc4565b5b50565b600062000e5e8262000eb6565b62000e6a818562000ec1565b935062000e7c81856020860162000ed2565b62000e878162000f6d565b840191505092915050565b6000602082019050818103600083015262000eae818462000e51565b905092915050565b600081519050919050565b600082825260208201905092915050565b60005b8381101562000ef257808201518184015260208101905062000ed5565b8381111562000f02576000848401525b50505050565b6000600282049050600182168062000f2157607f821691505b6020821081141562000f385762000f3762000f3e565b5b50919050565b7f4e487b7100000000000000000000000000000000000000000000000000000000600052602260045260246000fd5b6000601f19601f8301169050919050565b613d2c8062000f8e6000396000f3fe608060405234801561001057600080fd5b506004361061012c5760003560e01c80636352211e116100ad578063b88d4fde11610071578063b88d4fde14610356578063c575757a14610372578063c87b56dd146103a2578063d5abeb01146103d2578063e985e9c5146103f05761012c565b80636352211e1461028c57806370a08231146102bc57806395d89b41146102ec578063a22cb4651461030a578063b187301f146103265761012c565b806323b872dd116100f457806323b872dd146101d55780632de38d68146101f157806342842e0e1461022157806346ad58591461023d578063514dc8c61461025c5761012c565b806301ffc9a71461013157806306fdde0314610161578063081812fc1461017f578063095ea7b3146101af578063207522e0146101cb575b600080fd5b61014b6004803603810190610146919061271d565b610420565b6040516101589190612ea9565b60405180910390f35b610169610502565b6040516101769190612ec4565b60405180910390f35b6101996004803603810190610194919061276f565b610594565b6040516101a69190612e19565b60405180910390f35b6101c960048036038101906101c491906126e1565b610619565b005b6101d3610731565b005b6101ef60048036038101906101ea91906125db565b610983565b005b61020b6004803603810190610206919061276f565b6109e3565b6040516102189190612ec4565b60405180910390f35b61023b600480360381019061023691906125db565b610b01565b005b610245610b21565b60405161025392919061315f565b60405180910390f35b6102766004803603810190610271919061276f565b610b38565b6040516102839190612ec4565b60405180910390f35b6102a660048036038101906102a1919061276f565b610c56565b6040516102b39190612e19565b60405180910390f35b6102d660048036038101906102d19190612576565b610d08565b6040516102e39190613144565b60405180910390f35b6102f4610dc0565b6040516103019190612ec4565b60405180910390f35b610324600480360381019061031f91906126a5565b610e52565b005b610340600480360381019061033b919061276f565b610e68565b60405161034d9190612ec4565b60405180910390f35b610370600480360381019061036b919061262a565b610f86565b005b61038c6004803603810190610387919061276f565b610fe8565b6040516103999190612ec4565b60405180910390f35b6103bc60048036038101906103b7919061276f565b611106565b6040516103c99190612ec4565b60405180910390f35b6103da611258565b6040516103e79190613144565b60405180910390f35b61040a6004803603810190610405919061259f565b61125d565b6040516104179190612ea9565b60405180910390f35b60007f80ac58cd000000000000000000000000000000000000000000000000000000007bffffffffffffffffffffffffffffffffffffffffffffffffffffffff1916827bffffffffffffffffffffffffffffffffffffffffffffffffffffffff191614806104eb57507f5b5e139f000000000000000000000000000000000000000000000000000000007bffffffffffffffffffffffffffffffffffffffffffffffffffffffff1916827bffffffffffffffffffffffffffffffffffffffffffffffffffffffff1916145b806104fb57506104fa8261138a565b5b9050919050565b60606000805461051190613401565b80601f016020809104026020016040519081016040528092919081815260200182805461053d90613401565b801561058a5780601f1061055f5761010080835404028352916020019161058a565b820191906000526020600020905b81548152906001019060200180831161056d57829003601f168201915b5050505050905090565b600061059f826113f4565b6105de576040517f08c379a00000000000000000000000000000000000000000000000000000000081526004016105d5906130c4565b60405180910390fd5b6004600083815260200190815260200160002060009054906101000a900473ffffffffffffffffffffffffffffffffffffffff169050919050565b600061062482610c56565b90508073ffffffffffffffffffffffffffffffffffffffff168373ffffffffffffffffffffffffffffffffffffffff161415610695576040517f08c379a000000000000000000000000000000000000000000000000000000000815260040161068c90613104565b60405180910390fd5b8073ffffffffffffffffffffffffffffffffffffffff166106b4611460565b73ffffffffffffffffffffffffffffffffffffffff1614806106e357506106e2816106dd611460565b61125d565b5b610722576040517f08c379a000000000000000000000000000000000000000000000000000000000815260040161071990613004565b60405180910390fd5b61072c8383611468565b505050565b6003600161073f6007611521565b6107499190613236565b10610789576040517f08c379a000000000000000000000000000000000000000000000000000000000815260040161078090612fe4565b60405180910390fd5b60006107956007611521565b905060006107a2826109e3565b905060006107af83610e68565b905060006107bc84610fe8565b905060008383836040516020016107d593929190612cb0565b604051602081830303815290604052905060006107f186610b38565b9050600060088260098560405160200161080e9493929190612ce1565b604051602081830303815290604052905060006108538461082e8461152f565b60405160200161083f929190612d4c565b60405160208183030381529060405261152f565b90506000816040516020016108689190612dd5565b60405160208183030381529060405290506108b76040518060400160405280601581526020017f0a2d2d2d2d2d2d2d2d2d2d2d2d2d2d2d2d2d2d2d2d00000000000000000000008152506112f1565b6108c0836112f1565b6108fe6040518060400160405280601581526020017f2d2d2d2d2d2d2d2d2d2d2d2d2d2d2d2d2d2d2d2d0a00000000000000000000008152506112f1565b610908338a6116ed565b610912898261170b565b610935604051806060016040528060258152602001613c92602591398a3361177f565b61093f600761181e565b7febb98688741ffa4c7589bf325de30cf7becb63de567842e1ccdb6cb949fdc82c338a604051610970929190612e80565b60405180910390a1505050505050505050565b61099461098e611460565b82611834565b6109d3576040517f08c379a00000000000000000000000000000000000000000000000000000000081526004016109ca90613124565b60405180910390fd5b6109de838383611912565b505050565b60606000610a176109f384611b79565b604051602001610a039190612d91565b604051602081830303815290604052611d26565b9050600a8054905081610a2a91906134ad565b9050600a8181548110610a66577f4e487b7100000000000000000000000000000000000000000000000000000000600052603260045260246000fd5b906000526020600020018054610a7b90613401565b80601f0160208091040260200160405190810160405280929190818152602001828054610aa790613401565b8015610af45780601f10610ac957610100808354040283529160200191610af4565b820191906000526020600020905b815481529060010190602001808311610ad757829003601f168201915b5050505050915050919050565b610b1c83838360405180602001604052806000815250610f86565b505050565b600080610b2e6007611521565b6003915091509091565b60606000610b6c610b4884611b79565b604051602001610b589190612df7565b604051602081830303815290604052611d26565b9050600d8054905081610b7f91906134ad565b9050600d8181548110610bbb577f4e487b7100000000000000000000000000000000000000000000000000000000600052603260045260246000fd5b906000526020600020018054610bd090613401565b80601f0160208091040260200160405190810160405280929190818152602001828054610bfc90613401565b8015610c495780601f10610c1e57610100808354040283529160200191610c49565b820191906000526020600020905b815481529060010190602001808311610c2c57829003601f168201915b5050505050915050919050565b6000806002600084815260200190815260200160002060009054906101000a900473ffffffffffffffffffffffffffffffffffffffff169050600073ffffffffffffffffffffffffffffffffffffffff168173ffffffffffffffffffffffffffffffffffffffff161415610cff576040517f08c379a0000000000000000000000000000000000000000000000000000000008152600401610cf690613044565b60405180910390fd5b80915050919050565b60008073ffffffffffffffffffffffffffffffffffffffff168273ffffffffffffffffffffffffffffffffffffffff161415610d79576040517f08c379a0000000000000000000000000000000000000000000000000000000008152600401610d7090613024565b60405180910390fd5b600360008373ffffffffffffffffffffffffffffffffffffffff1673ffffffffffffffffffffffffffffffffffffffff168152602001908152602001600020549050919050565b606060018054610dcf90613401565b80601f0160208091040260200160405190810160405280929190818152602001828054610dfb90613401565b8015610e485780601f10610e1d57610100808354040283529160200191610e48565b820191906000526020600020905b815481529060010190602001808311610e2b57829003601f168201915b5050505050905090565b610e64610e5d611460565b8383611d59565b5050565b60606000610e9c610e7884611b79565b604051602001610e889190612db3565b604051602081830303815290604052611d26565b9050600b8054905081610eaf91906134ad565b9050600b8181548110610eeb577f4e487b7100000000000000000000000000000000000000000000000000000000600052603260045260246000fd5b906000526020600020018054610f0090613401565b80601f0160208091040260200160405190810160405280929190818152602001828054610f2c90613401565b8015610f795780601f10610f4e57610100808354040283529160200191610f79565b820191906000526020600020905b815481529060010190602001808311610f5c57829003601f168201915b5050505050915050919050565b610f97610f91611460565b83611834565b610fd6576040517f08c379a0000000000000000000000000000000000000000000000000000000008152600401610fcd90613124565b60405180910390fd5b610fe284848484611ec6565b50505050565b6060600061101c610ff884611b79565b6040516020016110089190612d2a565b604051602081830303815290604052611d26565b9050600c805490508161102f91906134ad565b9050600c818154811061106b577f4e487b7100000000000000000000000000000000000000000000000000000000600052603260045260246000fd5b90600052602060002001805461108090613401565b80601f01602080910402602001604051908101604052809291908181526020018280546110ac90613401565b80156110f95780601f106110ce576101008083540402835291602001916110f9565b820191906000526020600020905b8154815290600101906020018083116110dc57829003601f168201915b5050505050915050919050565b6060611111826113f4565b611150576040517f08c379a0000000000000000000000000000000000000000000000000000000008152600401611147906130a4565b60405180910390fd5b600060066000848152602001908152602001600020805461117090613401565b80601f016020809104026020016040519081016040528092919081815260200182805461119c90613401565b80156111e95780601f106111be576101008083540402835291602001916111e9565b820191906000526020600020905b8154815290600101906020018083116111cc57829003601f168201915b5050505050905060006111fa611f22565b9050600081511415611210578192505050611253565b60008251111561124557808260405160200161122d929190612c8c565b60405160208183030381529060405292505050611253565b61124e84611f39565b925050505b919050565b600381565b6000600560008473ffffffffffffffffffffffffffffffffffffffff1673ffffffffffffffffffffffffffffffffffffffff16815260200190815260200160002060008373ffffffffffffffffffffffffffffffffffffffff1673ffffffffffffffffffffffffffffffffffffffff16815260200190815260200160002060009054906101000a900460ff16905092915050565b611387816040516024016113059190612ec4565b6040516020818303038152906040527f41304fac000000000000000000000000000000000000000000000000000000007bffffffffffffffffffffffffffffffffffffffffffffffffffffffff19166020820180517bffffffffffffffffffffffffffffffffffffffffffffffffffffffff8381831617835250505050611fe0565b50565b60007f01ffc9a7000000000000000000000000000000000000000000000000000000007bffffffffffffffffffffffffffffffffffffffffffffffffffffffff1916827bffffffffffffffffffffffffffffffffffffffffffffffffffffffff1916149050919050565b60008073ffffffffffffffffffffffffffffffffffffffff166002600084815260200190815260200160002060009054906101000a900473ffffffffffffffffffffffffffffffffffffffff1673ffffffffffffffffffffffffffffffffffffffff1614159050919050565b600033905090565b816004600083815260200190815260200160002060006101000a81548173ffffffffffffffffffffffffffffffffffffffff021916908373ffffffffffffffffffffffffffffffffffffffff160217905550808273ffffffffffffffffffffffffffffffffffffffff166114db83610c56565b73ffffffffffffffffffffffffffffffffffffffff167f8c5be1e5ebec7d5bd14f71427d1e84f3dd0314c0f7b2291e5b200ac8c7c3b92560405160405180910390a45050565b600081600001549050919050565b6060600082519050600081141561155857604051806020016040528060008152509150506116e8565b600060036002836115699190613236565b611573919061328c565b600461157f91906132bd565b905060006020826115909190613236565b67ffffffffffffffff8111156115cf577f4e487b7100000000000000000000000000000000000000000000000000000000600052604160045260246000fd5b6040519080825280601f01601f1916602001820160405280156116015781602001600182028036833780820191505090505b5090506000604051806060016040528060408152602001613cb7604091399050600181016020830160005b868110156116a55760038101905062ffffff818a015116603f8160121c168401518060081b905060ff603f83600c1c1686015116810190508060081b905060ff603f8360061c1686015116810190508060081b905060ff603f831686015116810190508060e01b9050808452600484019350505061162c565b5060038606600181146116bf57600281146116cf576116da565b613d3d60f01b60028303526116da565b603d60f81b60018303525b508484525050819450505050505b919050565b611707828260405180602001604052806000815250612009565b5050565b611714826113f4565b611753576040517f08c379a000000000000000000000000000000000000000000000000000000000815260040161174a90613064565b60405180910390fd5b8060066000848152602001908152602001600020908051906020019061177a929190612402565b505050565b61181983838360405160240161179793929190612ee6565b6040516020818303038152906040527fe3849f79000000000000000000000000000000000000000000000000000000007bffffffffffffffffffffffffffffffffffffffffffffffffffffffff19166020820180517bffffffffffffffffffffffffffffffffffffffffffffffffffffffff8381831617835250505050611fe0565b505050565b6001816000016000828254019250508190555050565b600061183f826113f4565b61187e576040517f08c379a000000000000000000000000000000000000000000000000000000000815260040161187590612fc4565b60405180910390fd5b600061188983610c56565b90508073ffffffffffffffffffffffffffffffffffffffff168473ffffffffffffffffffffffffffffffffffffffff1614806118f857508373ffffffffffffffffffffffffffffffffffffffff166118e084610594565b73ffffffffffffffffffffffffffffffffffffffff16145b806119095750611908818561125d565b5b91505092915050565b8273ffffffffffffffffffffffffffffffffffffffff1661193282610c56565b73ffffffffffffffffffffffffffffffffffffffff1614611988576040517f08c379a000000000000000000000000000000000000000000000000000000000815260040161197f90612f44565b60405180910390fd5b600073ffffffffffffffffffffffffffffffffffffffff168273ffffffffffffffffffffffffffffffffffffffff1614156119f8576040517f08c379a00000000000000000000000000000000000000000000000000000000081526004016119ef90612f84565b60405180910390fd5b611a03838383612064565b611a0e600082611468565b6001600360008573ffffffffffffffffffffffffffffffffffffffff1673ffffffffffffffffffffffffffffffffffffffff1681526020019081526020016000206000828254611a5e9190613317565b925050819055506001600360008473ffffffffffffffffffffffffffffffffffffffff1673ffffffffffffffffffffffffffffffffffffffff1681526020019081526020016000206000828254611ab59190613236565b92505081905550816002600083815260200190815260200160002060006101000a81548173ffffffffffffffffffffffffffffffffffffffff021916908373ffffffffffffffffffffffffffffffffffffffff160217905550808273ffffffffffffffffffffffffffffffffffffffff168473ffffffffffffffffffffffffffffffffffffffff167fddf252ad1be2c89b69c2b068fc378daa952ba7f163c4a11628f55a4df523b3ef60405160405180910390a4611b74838383612069565b505050565b60606000821415611bc1576040518060400160405280600181526020017f30000000000000000000000000000000000000000000000000000000000000008152509050611d21565b600082905060005b60008214611bf3578080611bdc90613464565b915050600a82611bec919061328c565b9150611bc9565b60008167ffffffffffffffff811115611c35577f4e487b7100000000000000000000000000000000000000000000000000000000600052604160045260246000fd5b6040519080825280601f01601f191660200182016040528015611c675781602001600182028036833780820191505090505b5090505b60008514611d1a57600182611c809190613317565b9150600a85611c8f91906134ad565b6030611c9b9190613236565b60f81b818381518110611cd7577f4e487b7100000000000000000000000000000000000000000000000000000000600052603260045260246000fd5b60200101907effffffffffffffffffffffffffffffffffffffffffffffffffffffffffffff1916908160001a905350600a85611d13919061328c565b9450611c6b565b8093505050505b919050565b600081604051602001611d399190612c75565b6040516020818303038152906040528051906020012060001c9050919050565b8173ffffffffffffffffffffffffffffffffffffffff168373ffffffffffffffffffffffffffffffffffffffff161415611dc8576040517f08c379a0000000000000000000000000000000000000000000000000000000008152600401611dbf90612fa4565b60405180910390fd5b80600560008573ffffffffffffffffffffffffffffffffffffffff1673ffffffffffffffffffffffffffffffffffffffff16815260200190815260200160002060008473ffffffffffffffffffffffffffffffffffffffff1673ffffffffffffffffffffffffffffffffffffffff16815260200190815260200160002060006101000a81548160ff0219169083151502179055508173ffffffffffffffffffffffffffffffffffffffff168373ffffffffffffffffffffffffffffffffffffffff167f17307eab39ab6107e8899845ad3d59bd9653f200f220920489ca2b5937696c3183604051611eb99190612ea9565b60405180910390a3505050565b611ed1848484611912565b611edd8484848461206e565b611f1c576040517f08c379a0000000000000000000000000000000000000000000000000000000008152600401611f1390612f24565b60405180910390fd5b50505050565b606060405180602001604052806000815250905090565b6060611f44826113f4565b611f83576040517f08c379a0000000000000000000000000000000000000000000000000000000008152600401611f7a906130e4565b60405180910390fd5b6000611f8d611f22565b90506000815111611fad5760405180602001604052806000815250611fd8565b80611fb784611b79565b604051602001611fc8929190612c8c565b6040516020818303038152906040525b915050919050565b60008151905060006a636f6e736f6c652e6c6f679050602083016000808483855afa5050505050565b6120138383612205565b612020600084848461206e565b61205f576040517f08c379a000000000000000000000000000000000000000000000000000000000815260040161205690612f24565b60405180910390fd5b505050565b505050565b505050565b600061208f8473ffffffffffffffffffffffffffffffffffffffff166123df565b156121f8578373ffffffffffffffffffffffffffffffffffffffff1663150b7a026120b8611460565b8786866040518563ffffffff1660e01b81526004016120da9493929190612e34565b602060405180830381600087803b1580156120f457600080fd5b505af192505050801561212557506040513d601f19601f820116820180604052508101906121229190612746565b60015b6121a8573d8060008114612155576040519150601f19603f3d011682016040523d82523d6000602084013e61215a565b606091505b506000815114156121a0576040517f08c379a000000000000000000000000000000000000000000000000000000000815260040161219790612f24565b60405180910390fd5b805181602001fd5b63150b7a0260e01b7bffffffffffffffffffffffffffffffffffffffffffffffffffffffff1916817bffffffffffffffffffffffffffffffffffffffffffffffffffffffff1916149150506121fd565b600190505b949350505050565b600073ffffffffffffffffffffffffffffffffffffffff168273ffffffffffffffffffffffffffffffffffffffff161415612275576040517f08c379a000000000000000000000000000000000000000000000000000000000815260040161226c90613084565b60405180910390fd5b61227e816113f4565b156122be576040517f08c379a00000000000000000000000000000000000000000000000000000000081526004016122b590612f64565b60405180910390fd5b6122ca60008383612064565b6001600360008473ffffffffffffffffffffffffffffffffffffffff1673ffffffffffffffffffffffffffffffffffffffff168152602001908152602001600020600082825461231a9190613236565b92505081905550816002600083815260200190815260200160002060006101000a81548173ffffffffffffffffffffffffffffffffffffffff021916908373ffffffffffffffffffffffffffffffffffffffff160217905550808273ffffffffffffffffffffffffffffffffffffffff16600073ffffffffffffffffffffffffffffffffffffffff167fddf252ad1be2c89b69c2b068fc378daa952ba7f163c4a11628f55a4df523b3ef60405160405180910390a46123db60008383612069565b5050565b6000808273ffffffffffffffffffffffffffffffffffffffff163b119050919050565b82805461240e90613401565b90600052602060002090601f0160209004810192826124305760008555612477565b82601f1061244957805160ff1916838001178555612477565b82800160010185558215612477579182015b8281111561247657825182559160200191906001019061245b565b5b5090506124849190612488565b5090565b5b808211156124a1576000816000905550600101612489565b5090565b60006124b86124b3846131ad565b613188565b9050828152602081018484840111156124d057600080fd5b6124db8482856133bf565b509392505050565b6000813590506124f281613c35565b92915050565b60008135905061250781613c4c565b92915050565b60008135905061251c81613c63565b92915050565b60008151905061253181613c63565b92915050565b600082601f83011261254857600080fd5b81356125588482602086016124a5565b91505092915050565b60008135905061257081613c7a565b92915050565b60006020828403121561258857600080fd5b6000612596848285016124e3565b91505092915050565b600080604083850312156125b257600080fd5b60006125c0858286016124e3565b92505060206125d1858286016124e3565b9150509250929050565b6000806000606084860312156125f057600080fd5b60006125fe868287016124e3565b935050602061260f868287016124e3565b925050604061262086828701612561565b9150509250925092565b6000806000806080858703121561264057600080fd5b600061264e878288016124e3565b945050602061265f878288016124e3565b935050604061267087828801612561565b925050606085013567ffffffffffffffff81111561268d57600080fd5b61269987828801612537565b91505092959194509250565b600080604083850312156126b857600080fd5b60006126c6858286016124e3565b92505060206126d7858286016124f8565b9150509250929050565b600080604083850312156126f457600080fd5b6000612702858286016124e3565b925050602061271385828601612561565b9150509250929050565b60006020828403121561272f57600080fd5b600061273d8482850161250d565b91505092915050565b60006020828403121561275857600080fd5b600061276684828501612522565b91505092915050565b60006020828403121561278157600080fd5b600061278f84828501612561565b91505092915050565b6127a18161334b565b82525050565b6127b08161335d565b82525050565b60006127c1826131f3565b6127cb8185613209565b93506127db8185602086016133ce565b6127e48161359a565b840191505092915050565b60006127fa826131fe565b612804818561321a565b93506128148185602086016133ce565b61281d8161359a565b840191505092915050565b6000612833826131fe565b61283d818561322b565b935061284d8185602086016133ce565b80840191505092915050565b6000815461286681613401565b612870818661322b565b9450600182166000811461288b576001811461289c576128cf565b60ff198316865281860193506128cf565b6128a5856131de565b60005b838110156128c7578154818901526001820191506020810190506128a8565b838801955050505b50505092915050565b60006128e5606d8361322b565b91506128f0826135ab565b606d82019050919050565b600061290860328361321a565b915061291382613646565b604082019050919050565b600061292b60258361321a565b915061293682613695565b604082019050919050565b600061294e601c8361321a565b9150612959826136e4565b602082019050919050565b600061297160248361321a565b915061297c8261370d565b604082019050919050565b600061299460198361321a565b915061299f8261375c565b602082019050919050565b60006129b7602c8361321a565b91506129c282613785565b604082019050919050565b60006129da600d8361322b565b91506129e5826137d4565b600d82019050919050565b60006129fd600a8361321a565b9150612a08826137fd565b602082019050919050565b6000612a2060388361321a565b9150612a2b82613826565b604082019050919050565b6000612a43602a8361321a565b9150612a4e82613875565b604082019050919050565b6000612a6660298361321a565b9150612a71826138c4565b604082019050919050565b6000612a89602e8361321a565b9150612a9482613913565b604082019050919050565b6000612aac600d8361322b565b9150612ab782613962565b600d82019050919050565b6000612acf60028361322b565b9150612ada8261398b565b600282019050919050565b6000612af260208361321a565b9150612afd826139b4565b602082019050919050565b6000612b1560318361321a565b9150612b20826139dd565b604082019050919050565b6000612b38602c8361321a565b9150612b4382613a2c565b604082019050919050565b6000612b5b602f8361321a565b9150612b6682613a7b565b604082019050919050565b6000612b7e600a8361322b565b9150612b8982613aca565b600a82019050919050565b6000612ba160218361321a565b9150612bac82613af3565b604082019050919050565b6000612bc4600a8361322b565b9150612bcf82613b42565b600a82019050919050565b6000612be7600e8361322b565b9150612bf282613b6b565b600e82019050919050565b6000612c0a601d8361322b565b9150612c1582613b94565b601d82019050919050565b6000612c2d60318361321a565b9150612c3882613bbd565b604082019050919050565b6000612c5060058361322b565b9150612c5b82613c0c565b600582019050919050565b612c6f816133b5565b82525050565b6000612c818284612828565b915081905092915050565b6000612c988285612828565b9150612ca48284612828565b91508190509392505050565b6000612cbc8286612828565b9150612cc88285612828565b9150612cd48284612828565b9150819050949350505050565b6000612ced8287612859565b9150612cf98286612828565b9150612d058285612859565b9150612d118284612828565b9150612d1c826129cd565b915081905095945050505050565b6000612d3582612a9f565b9150612d418284612828565b915081905092915050565b6000612d5782612b71565b9150612d638285612828565b9150612d6e826128d8565b9150612d7a8284612828565b9150612d8582612ac2565b91508190509392505050565b6000612d9c82612bb7565b9150612da88284612828565b915081905092915050565b6000612dbe82612bda565b9150612dca8284612828565b915081905092915050565b6000612de082612bfd565b9150612dec8284612828565b915081905092915050565b6000612e0282612c43565b9150612e0e8284612828565b915081905092915050565b6000602082019050612e2e6000830184612798565b92915050565b6000608082019050612e496000830187612798565b612e566020830186612798565b612e636040830185612c66565b8181036060830152612e7581846127b6565b905095945050505050565b6000604082019050612e956000830185612798565b612ea26020830184612c66565b9392505050565b6000602082019050612ebe60008301846127a7565b92915050565b60006020820190508181036000830152612ede81846127ef565b905092915050565b60006060820190508181036000830152612f0081866127ef565b9050612f0f6020830185612c66565b612f1c6040830184612798565b949350505050565b60006020820190508181036000830152612f3d816128fb565b9050919050565b60006020820190508181036000830152612f5d8161291e565b9050919050565b60006020820190508181036000830152612f7d81612941565b9050919050565b60006020820190508181036000830152612f9d81612964565b9050919050565b60006020820190508181036000830152612fbd81612987565b9050919050565b60006020820190508181036000830152612fdd816129aa565b9050919050565b60006020820190508181036000830152612ffd816129f0565b9050919050565b6000602082019050818103600083015261301d81612a13565b9050919050565b6000602082019050818103600083015261303d81612a36565b9050919050565b6000602082019050818103600083015261305d81612a59565b9050919050565b6000602082019050818103600083015261307d81612a7c565b9050919050565b6000602082019050818103600083015261309d81612ae5565b9050919050565b600060208201905081810360008301526130bd81612b08565b9050919050565b600060208201905081810360008301526130dd81612b2b565b9050919050565b600060208201905081810360008301526130fd81612b4e565b9050919050565b6000602082019050818103600083015261311d81612b94565b9050919050565b6000602082019050818103600083015261313d81612c20565b9050919050565b60006020820190506131596000830184612c66565b92915050565b60006040820190506131746000830185612c66565b6131816020830184612c66565b9392505050565b60006131926131a3565b905061319e8282613433565b919050565b6000604051905090565b600067ffffffffffffffff8211156131c8576131c761356b565b5b6131d18261359a565b9050602081019050919050565b60008190508160005260206000209050919050565b600081519050919050565b600081519050919050565b600082825260208201905092915050565b600082825260208201905092915050565b600081905092915050565b6000613241826133b5565b915061324c836133b5565b9250827fffffffffffffffffffffffffffffffffffffffffffffffffffffffffffffffff03821115613281576132806134de565b5b828201905092915050565b6000613297826133b5565b91506132a2836133b5565b9250826132b2576132b161350d565b5b828204905092915050565b60006132c8826133b5565b91506132d3836133b5565b9250817fffffffffffffffffffffffffffffffffffffffffffffffffffffffffffffffff048311821515161561330c5761330b6134de565b5b828202905092915050565b6000613322826133b5565b915061332d836133b5565b9250828210156133405761333f6134de565b5b828203905092915050565b600061335682613395565b9050919050565b60008115159050919050565b60007fffffffff0000000000000000000000000000000000000000000000000000000082169050919050565b600073ffffffffffffffffffffffffffffffffffffffff82169050919050565b6000819050919050565b82818337600083830152505050565b60005b838110156133ec5780820151818401526020810190506133d1565b838111156133fb576000848401525b50505050565b6000600282049050600182168061341957607f821691505b6020821081141561342d5761342c61353c565b5b50919050565b61343c8261359a565b810181811067ffffffffffffffff8211171561345b5761345a61356b565b5b80604052505050565b600061346f826133b5565b91507fffffffffffffffffffffffffffffffffffffffffffffffffffffffffffffffff8214156134a2576134a16134de565b5b600182019050919050565b60006134b8826133b5565b91506134c3836133b5565b9250826134d3576134d261350d565b5b828206905092915050565b7f4e487b7100000000000000000000000000000000000000000000000000000000600052601160045260246000fd5b7f4e487b7100000000000000000000000000000000000000000000000000000000600052601260045260246000fd5b7f4e487b7100000000000000000000000000000000000000000000000000000000600052602260045260246000fd5b7f4e487b7100000000000000000000000000000000000000000000000000000000600052604160045260246000fd5b6000601f19601f8301169050919050565b7f222c20226465736372697074696f6e223a2022576973646f6d206f662061204460008201527f7261676f6e20746f2066696c6c20796f7572204a6f75726e657920776974682060208201527f6c696768742e222c2022696d616765223a2022646174613a696d6167652f737660408201527f672b786d6c3b6261736536342c00000000000000000000000000000000000000606082015250565b7f4552433732313a207472616e7366657220746f206e6f6e20455243373231526560008201527f63656976657220696d706c656d656e7465720000000000000000000000000000602082015250565b7f4552433732313a207472616e736665722066726f6d20696e636f72726563742060008201527f6f776e6572000000000000000000000000000000000000000000000000000000602082015250565b7f4552433732313a20746f6b656e20616c7265616479206d696e74656400000000600082015250565b7f4552433732313a207472616e7366657220746f20746865207a65726f2061646460008201527f7265737300000000000000000000000000000000000000000000000000000000602082015250565b7f4552433732313a20617070726f766520746f2063616c6c657200000000000000600082015250565b7f4552433732313a206f70657261746f7220717565727920666f72206e6f6e657860008201527f697374656e7420746f6b656e0000000000000000000000000000000000000000602082015250565b7f3c2f746578743e3c2f7376673e00000000000000000000000000000000000000600082015250565b7f536f6c64204f7574212100000000000000000000000000000000000000000000600082015250565b7f4552433732313a20617070726f76652063616c6c6572206973206e6f74206f7760008201527f6e6572206e6f7220617070726f76656420666f7220616c6c0000000000000000602082015250565b7f4552433732313a2062616c616e636520717565727920666f7220746865207a6560008201527f726f206164647265737300000000000000000000000000000000000000000000602082015250565b7f4552433732313a206f776e657220717565727920666f72206e6f6e657869737460008201527f656e7420746f6b656e0000000000000000000000000000000000000000000000602082015250565b7f45524337323155524953746f726167653a2055524920736574206f66206e6f6e60008201527f6578697374656e7420746f6b656e000000000000000000000000000000000000602082015250565b7f20202054484952445f574f524400000000000000000000000000000000000000600082015250565b7f227d000000000000000000000000000000000000000000000000000000000000600082015250565b7f4552433732313a206d696e7420746f20746865207a65726f2061646472657373600082015250565b7f45524337323155524953746f726167653a2055524920717565727920666f722060008201527f6e6f6e6578697374656e7420746f6b656e000000000000000000000000000000602082015250565b7f4552433732313a20617070726f76656420717565727920666f72206e6f6e657860008201527f697374656e7420746f6b656e0000000000000000000000000000000000000000602082015250565b7f4552433732314d657461646174613a2055524920717565727920666f72206e6f60008201527f6e6578697374656e7420746f6b656e0000000000000000000000000000000000602082015250565b7f7b226e616d65223a202200000000000000000000000000000000000000000000600082015250565b7f4552433732313a20617070726f76616c20746f2063757272656e74206f776e6560008201527f7200000000000000000000000000000000000000000000000000000000000000602082015250565b7f46495253545f574f524400000000000000000000000000000000000000000000600082015250565b7f2020205345434f4e445f574f5244000000000000000000000000000000000000600082015250565b7f646174613a6170706c69636174696f6e2f6a736f6e3b6261736536342c000000600082015250565b7f4552433732313a207472616e736665722063616c6c6572206973206e6f74206f60008201527f776e6572206e6f7220617070726f766564000000000000000000000000000000602082015250565b7f434f4c4f52000000000000000000000000000000000000000000000000000000600082015250565b613c3e8161334b565b8114613c4957600080fd5b50565b613c558161335d565b8114613c6057600080fd5b50565b613c6c81613369565b8114613c7757600080fd5b50565b613c83816133b5565b8114613c8e57600080fd5b5056fe416e204e465420772f20494420257320686173206265656e206d696e74656420746f2025734142434445464748494a4b4c4d4e4f505152535455565758595a6162636465666768696a6b6c6d6e6f707172737475767778797a303132333435363738392b2fa2646970667358221220a2b40ba3d70bd23977a68730d3a2f867cded902b31d6cadeebc7d4d70e5b64dc64736f6c6343000801003354686973206973206d79204e465420636f6e74726163742e20574f4f4f542121213c73766720786d6c6e733d27687474703a2f2f7777772e77332e6f72672f323030302f73766727207072657365727665417370656374526174696f3d27784d696e594d696e206d656574272076696577426f783d273020302033353020333530273e3c7374796c653e2e62617365207b2066696c6c3a2077686974653b20666f6e742d66616d696c793a2073657269663b20666f6e742d73697a653a20323470783b207d3c2f7374796c653e3c726563742077696474683d273130302527206865696768743d2731303025272066696c6c3d27272f3e3c7465787420783d273530252720793d273530252720636c6173733d27626173652720646f6d696e616e742d626173656c696e653d276d6964646c652720746578742d616e63686f723d276d6964646c65273e",
  "linkReferences": {},
  "deployedLinkReferences": {}
}